:100000000C9402070C942A070C942A070C942A07D4
:100010000C942A070C942A070C942A070C942A079C
:100020000C942A070C942A070C941E240C948D24FB
:100030000C942A070C942A070C942A070C942A077C
:100040000C942A070C9481270C942A070C942A07F5
:100050000C942A070C942A070C942A070C94BF26A8
:100060000C942A070C942A070C942A070C942A074C
:100070000C942A070C942A070C942A070C942A073C
:100080000C9409270C942A070C942A070C942A072D
:100090000C942A070C942A070C942A070C942A071C
:1000A0000C942A070C942A070C942A07084AD73B79
:1000B0003BCE016E84BCBFFDC12F3D6C74319ABD37
:1000C00056833DDA3D00C77F11BED9E4BB4C3E915B
:1000D0006BAAAABE000000803F00050115012501A2
:1000E000370149015D01720188019F01B801D20108
:1000F000EE010B022A024B026E029302BA02E402E4
:1001000010033E037003A403DC0316045404960496
:10011000DC0426057505C80520067D06E0064807AF
:10012000B7072D08A9082D09B9094D0AEA0A900B4D
:10013000400CFA0CC00D910E6F0F5A1053115A1249
:1001400072139A14D31520178018F519801B221DDD
:10015000DE1EB420A622B524E4263429A72B402E87
:100160000031080809090A0B0B0C0D0E0E0F1011B7
:100170001213141617181A1B1D1F20222427292BAF
:100180002E3134373A3D4145494E52575C62686ED4
:10019000747B838A939BA5AEB9C4CFDCE9F70001D9
:1001A00002030406080C00F4F8FAFCFDFEFF3E47CB
:1001B0006B6D6D413E3E41555551653E000306094C
:1001C0000C0F1215181C1F2225282B2E3033363900
:1001D0003C3F414447494C4E515355585A5C5E6030
:1001E000626466686A6C6D6F707273757677787921
:1001F0007A7B7C7C7D7E7E7F7F7F7F7F80903B9142
:100200003F0034808101A5903B913F003480810004
:100210001A903B913F923F0034808182001A903BBC
:10022000913F0034808101A5903B913F0034808153
:10023000001A903B913F00348081001A903B913F1F
:100240000034808100699036913B003480810069E0
:10025000903B913F003480810069903F914200348F
:1002600080810069903B913F003480810069903625
:10027000913B003480810069903B913F0034808144
:1002800000699036913B003480810069903B913F3A
:100290000034808100699042913F00348081006980
:1002A000903B913F003480810069903B913600344F
:1002B00080810069903B913F0034808100699036D5
:1002C000913B003480810069903B913F00348081F4
:1002D00000699042913F003480810069903B913FDA
:1002E0000034808100699036913B00348081006940
:1002F000903F914200348081F07C12A517F815449C
:10030000FE9F93F1F199D9D09990D998F06060024D
:10031000070F0C080809090801090009000000037B
:1003200003FC3279843030847932FC000102000011
:100330000000020100000000C0F0F0F8F8F8F0F052
:10034000C00000000000000107070F0F0F070701A2
:1003500000000000E0F8FCFCFEFEFEFEFEFCFCF8E7
:10036000E00000030F1F1F3F3F3F3F3F1F1F0F03D2
:1003700000E0F8FCFEFEFF3F3F3FFFFEFEFCF8E022
:10038000030F1F3F3F7F7E7E7E7F3F3F1F0F03E0B7
:10039000F8FCFE3E1F0F0F0F1F3EFEFCF8E0030FA0
:1003A0001F3F3E7C7878787C3E3F1F0F03E0F81CAF
:1003B0000E060303030303060E1CF8E0030F1C38AC
:1003C00030606060606030381C0F03E01804020287
:1003D000010101010102020418E0030C1020204079
:1003E000404040402020100C03FF010101010101A9
:1003F00001010101010101FF00FF808080808080F8
:1004000080808080808080FF008000E0CEFFFFCE73
:10041000E00080FFFE3F6EE0E06E3F7CFFF0D874AE
:10042000FC76070776FC74D8F0E0110907033F3F1C
:1004300003070911E0729C8A8EF7BEE8409494008D
:1004400000010302030100000000061CF0E00000B0
:10045000E4DE868080C0603809C030981E1F073BEC
:100460001F9F9BB70F9F9C18F0061839E9F9C8B871
:10047000F8F9F879B8C8F8310D4070181C07030373
:10048000073FE70303071C30605449544C450052B2
:100490004554525900904C000A9049000A80F0DD02
:1004A0009C5D000A9C51000AE380F09026912D92F9
:1004B00039932194519545003C8182838485003C89
:1004C000912D92399321945195459039003C80812A
:1004D00082838485003C912D9239932194519545D6
:1004E0009039003C808182838485003C912D923933
:1004F0009321945195459039003C80818283848575
:10050000003C902A0078902A00789126922F933B05
:100510009423955380003C82838485003C922F93E2
:100520003B942395539047913B003C808182838488
:1005300085003C902A922F933B942395539147003A
:100540003C8182838485003C922F933B942391537A
:100550009547903B003C808182838485003C901FBE
:10056000922B9337941F914F9543003C8081828357
:100570008485003C922B9337941F914F954390377D
:10058000003C808182838485003C922B9337941FAA
:10059000914F95439037003C808182838485003C55
:1005A000922B9337941F914F95439037003C808155
:1005B00082838485003C00789221932D9415914587
:1005C0009539902D00789223932F94179147953B5E
:1005D000902F007892269332941A914A953E903249
:1005E0000078941C914C95409034000482830074F0
:1005F000043880818485F0DE945000089447000818
:10060000944C000894430008E480F04241434B209E
:10061000544F205449544C450052455452590043BC
:100620004F4E54494E554500550E644F0F5D4341A2
:100630004E43454C004F4B00534B4F203230323429
:10064000303600422418182442003C42423C004606
:1006500089897200FF060830FF00FF8181423C005B
:10066000000000240027002A002D003000000000B8
:1006700000250028002B002E003100040802011084
:1006800040804010204080408008020401804020CB
:1006900010020110801020404020040404040403D0
:1006A0000405020202020403020202020606060612
:1006B00006060404020202040447414D4520535437
:1006C000415254000000DF12E7119D1200008D1707
:1006D0003210080C0E0E0C080103070703014341FA
:1006E0004E43454C202020535441525400000000FA
:1006F0000000000000000000000000000000C0E05A
:10070000F8FC3C1E1F0F070303030303030303034B
:1007100003030303030303030303030303030303A9
:100720000303030303030303030303030303030399
:1007300003030303030000030000000000FEF800B1
:10074000000000000000000000000E06FCFC00009D
:100750000000000000000000000000000000000099
:100760000000000000000000000000000000000089
:100770000000000000000000000000000000010375
:10078000010C0C0C0C0C0C08B8F8B000000000F8C0
:100790003C1C0C0C1C1C080000FCF03818080C0C4D
:1007A0000C0C00E0F0381C0C0C0CFC00000000F8F5
:1007B000FC1C040418F8040C1CF8F000C0FFFFE057
:1007C00030181808183070E0E0000000FFFF00004B
:1007D0000000FC8E8686C6C66E3C18000000000035
:1007E0000000000000000000000000000000000009
:1007F00000000000000000000000000000101018C1
:10080000181818181818181F1F0F03000000000FE1
:100810000F1C1810101C0000001F1F00000000001B
:100820000000000F1F1818181C0F0F1E1C18101F97
:100830001F00000000000000001F1F00001F1F1FFE
:10084000101010101010180F0F0000001F1F1810AC
:10085000000001071F1D18101018180000000000EC
:100860000000000000000000000000000000000088
:1008700000003E5B4F5B3E3E6B4F6B3E1C3E7C3E42
:100880001C183C7E3C181C577D571C1C5E7F5E1C50
:1008900000183C1800FFE7C3E7FF0018241800FF0A
:1008A000E7DBE7FF30483A060E2629792926407F04
:1008B000050507407F05253F5A3CE73C5A7F3E1C13
:1008C0001C08081C1C3E7F14227F22145F5F005FFF
:1008D0005F06097F017F006689956A6060606060DD
:1008E00094A2FFA29408047E040810207E20100821
:1008F000082A1C08081C2A08081E101010100C1EBC
:100900000C1E0C30383E3830060E3E0E060000003D
:10091000000000005F00000007000700147F147F44
:1009200014242A7F2A122313086462364956205061
:100930000008070300001C2241000041221C002A7D
:100940001C7F1C2A08083E08080080703000080838
:10095000080808000060600020100804023E5149A9
:10096000453E00427F400072494949462141494D78
:10097000331814127F1027454545393C4A494931FF
:1009800041211109073649494936464949291E007E
:100990000014000000403400000008142241141428
:1009A000141414004122140802015909063E415D45
:1009B000594E7C1211127C7F494949363E414141D2
:1009C000227F4141413E7F494949417F090909014F
:1009D0003E414151737F0808087F00417F4100205C
:1009E00040413F017F081422417F404040407F0248
:1009F0001C027F7F0408107F3E4141413E7F090970
:100A000009063E4151215E7F091929462649494977
:100A10003203017F01033F4040403F1F2040201F21
:100A20003F4038403F6314081463030478040361B3
:100A300059494D43007F41414102040810200041C3
:100A400041417F040201020440404040400003074E
:100A5000080020545478407F2844443838444444A3
:100A600028384444287F385454541800087E09021A
:100A700018A4A49C787F0804047800447D400020DA
:100A800040403D007F1028440000417F40007C042E
:100A90007804787C080404783844444438FC1824EA
:100AA000241818242418FC7C0804040848545454BE
:100AB0002404043F44243C4040207C1C2040201C53
:100AC0003C4030403C44281028444C9090907C445A
:100AD00064544C4400083641000000770000004197
:100AE00036080002010204023C2623263C1EA1A176
:100AF00061123A4040207A3854545559215555795D
:100B0000412154547841215554784020545579401E
:100B10000C1E52721239555555593954545459397D
:100B2000555454580000457C410002457D42000167
:100B3000457C40F0292429F0F0282528F07C5455E4
:100B400045002054547C547C0A097F493249494964
:100B5000323248484832324A4848303A4141217A94
:100B60003A42402078009DA0A07D39444444393D5C
:100B70004040403D3C24FF2424487E4943662B2FBF
:100B8000FC2F2BFF0929F620C0887E09032054542E
:100B900079410000447D413048484A323840402283
:100BA0007A007A0A0A727D0D19317D2629292F28AB
:100BB000262929292630484D4020380808080808E9
:100BC000080808382F10C8ACBA2F102834FA0000D3
:100BD0007B000008142A142222142A1408950022EB
:100BE0000095AA005500AAAA55AA55AA000000FF20
:100BF00000101010FF00141414FF001010FF00FF6D
:100C00001010F010F0141414FC001414F700FF007E
:100C100000FF00FF1414F404FC141417101F10102C
:100C20001F101F1414141F00101010F000000000FB
:100C30001F101010101F10101010F010000000FFF7
:100C4000101010101010101010FF10000000FF14F2
:100C50000000FF00FF00001F10170000FC04F41448
:100C6000141710171414F404F40000FF00F7141400
:100C70001414141414F700F7141414171410101F7C
:100C8000101F141414F4141010F010F000001F10B2
:100C90001F0000001F14000000FC140000F010F002
:100CA0001010FF10FF141414FF141010101F000078
:100CB0000000F010FFFFFFFFFFF0F0F0F0F0FFFF8B
:100CC000FF0000000000FFFF0F0F0F0F0F3844441C
:100CD00038447C2A2A3E147E02020606027E027EE8
:100CE0000263554941633844443C04407E201E2041
:100CF00006027E020299A5E7A5991C2A492A1C4CE6
:100D00007201724C304A4D4D303048784830BC62E8
:100D10005A463D3E494949007E0101017E2A2A2A60
:100D20002A2A44445F444440514A444040444A5182
:100D3000400000FF0103E080FF000008086B6B0823
:100D40003612362436060F090F0600001818000068
:100D5000001010003040FF0101001F01011E0019AA
:100D60001D1712003C3C3C3C0000000000D5F08DFB
:100D700014A1C881CFD9F1AF2000B40DAB0D8D0DFA
:100D800076138716630D39154E132021080B0002C8
:100D90000202000009040000010202000005240014
:100DA00010010524010101042402060524060001A6
:100DB0000705810310004009040100020A00000039
:100DC00007050202400000070583024000000403FB
:100DD000090412010002EF020140412336800001A4
:100DE0000102030141726475696E6F204C4C43002F
:100DF00041726475696E6F204C656F6E6172646FCD
:100E000000002A2811241FBECFEFDAE0DEBFCDBFDD
:100E100012E0A0E0B1E0EEE0F3E602C005900D9232
:100E2000A433B107D9F729E0A4E3B2E001C01D92D1
:100E3000A937B207E1F717E0C2E0D7E004C0219775
:100E4000FE010E94A72EC130D107C9F70E94472892
:100E50000C9485310C940000E3E2F5E080E0A0E022
:100E6000B8E000800EBC8111012C1197A0FDFDCFD0
:100E70000192B9F70DB408952091770930E02095DB
:100E800030954091780950E02423352390E02823C1
:100E9000392381E0232B09F480E00895CF93DF9379
:100EA000DC0177FF13C022273327261B370B842F43
:100EB000042E000C990B281739072CF4460F70E00C
:100EC00060E0141644F0DF91CF9108951416DCF71A
:100ED00060347105C4F7A038B105A8F7262FCB01FF
:100EE000840F911D47FD9A958134910514F040E4DB
:100EF000461B27709FEF022E01C0990F0A94EAF754
:100F0000420F621B710977FF02C0695F7F4F83E068
:100F1000759567958A95E1F7FB01F695FE2FEE270B
:100F2000F795E795EA0FFB1FED5DFA4F28E030E0FB
:100F30006FEF70E014163CF6483064F4D901A41B3E
:100F4000B10947FDB395EB0102C0D595C795AA95A8
:100F5000E2F79C238081982B90834850E058FF4F04
:100F60009FEFE8CF0F93CF93DF9397FF0CC0EE274F
:100F7000FF27E81BF90B4E171F0609F00CF47CC085
:100F8000480F90E080E077FF0FC0AA27BB27A61B81
:100F9000B70BE22F022E000CFF0BAE17BF070CF0B1
:100FA0006BC0260F70E060E0442309F465C0803810
:100FB00091050CF061C012160CF05EC06034710532
:100FC0000CF05AC0FC01E40FF11DE138F10514F0FA
:100FD00040E8481B562FFB01E20FF11D27FDFA9553
:100FE000E134F10514F020E4261B57703FEF052E85
:100FF00001C0330F0A94EAF7250F651B710977FFCB
:1010000002C0695F7F4F53E0759567955A95E1F788
:101010007695762F662777956795860F971F8D5D56
:101020009A4FA8E0B0E0CFEFD0E012162CF52830B0
:1010300064F4BD01621B710927FD7395FE0102C0B6
:10104000F595E7956A95E2F73E2301110DC03095BD
:10105000FC01542F6081632361935150D9F72850CC
:1010600080589F4F3FEFE1CFFC01542F6081632BED
:1010700061935150D9F7F3CFDF91CF910F9108953C
:10108000FC0180910A05882311F13FB7F89482E0B2
:101090008093E9002091F200822F90E01816190643
:1010A00014F481E090E0882339F0289844E64093D6
:1010B00009054091F1004083222339F02091F2008C
:1010C000211103C02BE62093E8003FBF08958FEF66
:1010D0009FEF08952FB7F89483E08093E9009091F3
:1010E000E800892F807295FF04C09091F20080E49F
:1010F000891B2FBF08958091010581110DC082E0E9
:101100008093FD0484E08093FE0410920005109209
:10111000FF0481E0809301058DEF94E00895CF9363
:10112000DF931F92CDB7DEB76983DC01ED91FC91AF
:101130000280F381E02D41E050E0BE016F5F7F4F00
:1011400009950F90DF91CF91089583E08093E90096
:101150008091F200882319F08AE38093E8000895D3
:101160000E946A0890E00895CF93DF931F92CDB755
:10117000DEB7FC018485958597FD08C02FEF3FEF12
:10118000358724870F90DF91CF910895CE01019686
:101190000E944008019719F4898190E0F3CF8FEF06
:1011A0009FEFF0CF0F931F93CF93DF931F92CDB795
:1011B000DEB78C01FC018485958597FF0BC0CE01BD
:1011C00001960E944008019771F4898190E0F8012E
:1011D00095878487F801848595850F90DF91CF915D
:1011E0001F910F9108958FEF9FEFF1CFFC01848540
:1011F000958597FD0BC09FB7F89482E08093E90036
:101200008091F2009FBF90E0019608959FB7F894F7
:1012100082E08093E9008091F2009FBF90E0089502
:101220004091F7045091F8042091F5043091F604B0
:1012300042175307B4F49091E8009570E1F3909150
:10124000E80092FD19C08093F1008091F70490911D
:10125000F80401968F739927892B19F48EEF8093E8
:10126000E8008091F7049091F80401969093F804B7
:101270008093F70481E0089580E00895EF92FF9253
:101280000F931F93CF93DF93F82E192FE62E042F81
:1012900081E0860F880F0E94100983E00E941009E8
:1012A000CF2DD12FEC0EFD2EF11CCE15DF05B9F0A0
:1012B00007FF13C0FE0184910E941009182F80E0DF
:1012C0000E941009812321968111EFCFDF91CF91E8
:1012D0001F910F91FF90EF9008958881EDCF81E0ED
:1012E000F5CFDF92EF92FF920F931F93CF93DF938F
:1012F000D82E8A01EB017B01E40EF51ECE15DF0529
:1013000059F0D7FE12C0FE0184910E941009219667
:101310008111F4CF0FEF1FEFC801DF91CF911F9123
:101320000F91FF90EF90DF9008958881EECF0F939B
:101330001F93CF93DF931F92CDB7DEB782E08983EF
:1013400042E450E06CE87DE080E80E9471090E9470
:101350007B08DC0112960D911C910115110589F095
:10136000D801ED91FC910280F381E02DBE016F5F09
:101370007F4FC801099597FD04C0F80100851185CC
:10138000ECCF89810F90DF91CF911F910F9108953C
:10139000615030F02091F100FC0120830196F8CFDC
:1013A000289884E68093090508953FB7F8948091C2
:1013B000F1049091F204A091F304B091F40426B5E5
:1013C000A89B05C02F3F19F00196A11DB11D3FBF7D
:1013D000BA2FA92F982F8827BC01CD01620F711D4C
:1013E000811D911D42E0660F771F881F991F4A9546
:1013F000D1F708958F929F92AF92BF92CF92DF92D2
:10140000EF92FF926B017C010E94D5094B015C01B8
:10141000C114D104E104F104B9F00E94D50968199E
:1014200079098A099B09683E73408105910580F31B
:1014300021E0C21AD108E108F10888EE880E83E0A5
:10144000981EA11CB11CE4CFFF90EF90DF90CF90CD
:10145000BF90AF909F908F9008958F929F92AF9280
:10146000BF92CF92DF92EF92FF920F931F93CF9391
:10147000DF936C017B018A0180911A01882309F4B2
:101480005CC080910A05882309F457C08091FC0450
:1014900080FF05C08091E00082608093E000E80159
:1014A000B12C8AEFA82E93E0892E2AE3922E209762
:1014B00011F4BB20D9F10E946A0881110AC0AA94D4
:1014C000AA20D9F161E070E080E090E00E94FA0982
:1014D000EECF8C171D0611F00CF08C2F9FB7F894EF
:1014E0008092E9002091E80025FD02C09FBFDFCF78
:1014F000282F30E0C21BD30BF701815020F041911F
:101500004093F100FACFE20EF31EBB2021F090923F
:10151000E800B12CEBCF8091E80085FDE7CF9092F9
:10152000E800BB24B394209709F3F3CF5D9884E6D9
:101530008093FB04101611063CF081E090E0F60168
:101540009383828310E000E0C801DF91CF911F9167
:101550000F91FF90EF90DF90CF90BF90AF909F9052
:101560008F900895AF92BF92CF92DF92EF92FF9249
:101570000F931F93CF93DF936C017B018B01040FBB
:10158000151FEB015E01AE18BF08C017D10759F057
:101590006991D601ED91FC910190F081E02DC60199
:1015A0000995892B79F7C501DF91CF911F910F9193
:1015B000FF90EF90DF90CF90BF90AF900895BC0167
:1015C00090E080E00C94FA098FB18095807F669B53
:1015D00088601C9B846008958091E60408951092B1
:1015E000E6043E983F9808953E9A3F9A81E08093A2
:1015F000E604089580E0E3E2F5E081118FEF002436
:1016000081938193819381930394D1F71092E504A0
:101610001092E4041092E3041092E20408953F92C1
:101620004F925F926F927F928F929F92AF92BF92F2
:10163000CF92DF92EF92FF920F931F93CF93DF939E
:1016400030E0F901E80FF91F1E161F060CF0D7C095
:10165000803891050CF0D3C0FB01E00FF11D1E1680
:101660001F060CF0CCC0603471050CF0C8C0DB0163
:1016700077FF04C0AA27BB27A61BB70BA770BB2701
:10168000FB0177FD3796C3E0F595E795CA95E1F73D
:1016900077FF07C0319768E070E0EB01CA1BDB0BF6
:1016A000DE01402E469446944694512C077019F062
:1016B000DFEF4D1A5D0ABF01EF01D695DC2FCC2775
:1016C000D795C795C80FD91FCD5DDA4F8A01460E51
:1016D000571E48E050E04A018A1A9B0A64157505B6
:1016E00009F48DC06830710509F489C06F3FEFEFD0
:1016F0007E070CF44BC06C0150E040E03E01E0E896
:101700006E0E711CD7FC35C06F3F760709F473C0AD
:101710005E01A40EB51EF501F080FA01E00FF11F85
:1017200033243394E31039C0E4910A2E01C0EE0F44
:101730000A94EAF7FE2AF501F0821097D1F067309B
:101740007105B9F05301A40EB51EF501F080FA0140
:10175000E00FF11F33243394E31035C0E491F0E03F
:10176000082C02C0F595E7950A94E2F7FE2AF501E8
:10177000F0824F5F5F4FFFEFCF1ADF0A4217530728
:101780002CF4F0E8CF16D10409F0BCCF6F5F7F4F87
:10179000C058DF4F020F131FA1CFE1100CC0E4911E
:1017A000F0E00A2E02C0EE0FFF1F0A94E2F7E09568
:1017B000F095FE22C0CFE4910A2E01C0EE0F0A94EC
:1017C000EAF7FE26B8CFE1100CC0E491F0E0082C57
:1017D00002C0F595E7950A94E2F7E095F095FE22B0
:1017E000C6CFE491F0E0082C02C0F595E7950A9485
:1017F000E2F7FE26BCCF109709F0A4CFBACFDF9155
:10180000CF911F910F91FF90EF90DF90CF90BF90FD
:10181000AF909F908F907F906F905F904F903F9090
:10182000089580389105B8F460347105A0F420E182
:1018300091E061FD94E060FD990F62FD9295687FF3
:10184000269FD0011124A80FAD5DBA4F8C9140FFA7
:1018500003C0892B8C93089590958923FBCF2F92F9
:101860003F924F925F926F927F928F929F92AF9230
:10187000BF92CF92DF92EF92FF920F931F93CF937D
:10188000DF93CDB7DEB728970FB6F894DEBF0FBE53
:10189000CDBF6D30D9F030900D014090E4045090F0
:1018A000E504832D90E098878F836A3051F510927C
:1018B000E3041092E20423E0880F991F2A95E1F7D0
:1018C000480E591E5092E5044092E40481E090E0F5
:1018D00028960FB6F894DEBF0FBECDBFDF91CF9133
:1018E0001F910F91FF90EF90DF90CF90BF90AF903E
:1018F0009F908F907F906F905F904F903F902F9030
:10190000089590910C019B83A090E204B090E304B1
:10191000E5E06E9FB0011124CB018359974F3C0144
:10192000650119829981212C953029F0C301019616
:10193000F30124903C014201F8E0FA8320FE1DC02F
:101940002B812C8310E000E00315D0F4F601E00FAA
:10195000F11FFE83ED83F12CE12CE31480F5B4013B
:101960006E0D7F1D4C818D819E810E94110CFFEFB9
:10197000EF1AFF0AF2CF1C82E5CF8B818111FBCFDA
:1019800026942A8121502A838F819885880E991E5A
:101990002111D4CF99819F5F9983EF81F885CE0E75
:1019A000DF1E963009F0BECFC501F9813F9E800D44
:1019B000911D11249093E3048093E20487CF0F5F7D
:1019C0001F4FC2CF0F931F93CF93DF938C01D0E0B3
:1019D000C0E0F801EC0FFD1F6491662341F083E73E
:1019E00099E00E942F0C892B11F02196F2CFCE01A5
:1019F000DF91CF911F910F910895DF92EF92FF92A7
:101A00000F931F93CF93DF938091E104C82FC3708E
:101A100097E4C99FD02C112423E0C29F8001112498
:101A20000350134F9091E004E090DE04F090DF0447
:101A3000933021F4E82FE857FF0B7F01D0E0CC0F63
:101A4000DD1FF8018491835ED80E3196E4918D2DCF
:101A500090E0EF70F0E03896EE9D9001EF9D300D34
:101A6000FE9D300D112446E0359527954A95E1F706
:101A7000821B930B41E0BE018F7799270E94110CC6
:101A80002896045F1F4FC034D105DCF2DF91CF915F
:101A90001F910F91FF90EF90DF900895EF920F93B9
:101AA000EE24E39405E12FE74DEE56E068E070E0A8
:101AB00090E080E00E940F0B0F91EF90089583E07B
:101AC0008093E0040895CF93C091E004C33081F087
:101AD0008091DD0481110E94FA0AEC2FF0E0EE0FF4
:101AE000FF1FE453F94F85919491FC01CF91099424
:101AF000CF9108959C019091D10496306CF484E0CC
:101B00009802F0011124ED54FB4F3383228371833B
:101B100060839F5F9093D104089583E884BD8FEF25
:101B200087BD81EF809380008FE7809388001092BB
:101B30008A000E94FA0A82E290E09093E304809384
:101B4000E2048EE190E09093E5048093E40488E35E
:101B500096E00C94E20C9091E10491509093E10492
:101B600081E0911180E0089588E78093E104089571
:101B7000DF92EF92FF920F931F93CF93DF938091A9
:101B8000E104C82FC37097E4C99FD02C112423E02F
:101B9000C29F800111240854124F9091B204E0902A
:101BA000B004F090B104911104C0E82FE857FF0B86
:101BB0007F01D0E0CC0FDD1FF8018491835ED80E49
:101BC0003196E4918D2D90E0EF70F0E03896EE9D27
:101BD0009001EF9D300DFE9D300D112446E03595AE
:101BE00027954A95E1F7821B930B41E0BE018F7761
:101BF00099270E94110C2896045F1F4FC034D1050D
:101C0000DCF2DF91CF911F910F91FF90EF90DF9069
:101C1000089520910A0130910B01F90194819923D3
:101C200041F035962DE734E094E0EF3AF907B0F350
:101C3000F4CFF0930B01E0930A0122E830E0318306
:101C4000208320E18202C00111249383828381E0FA
:101C5000848308959C0190917C04903239F14091E5
:101C6000080150910901FA018481882341F03596D9
:101C70004CED53E084E0EC37F807B0F3F4CFF09389
:101C80000901E093080184E0220F331F8A95E1F7F0
:101C90003183208324E0660F771F2A95E1F7738351
:101CA00062838FEF84839F5F90937C04089590916B
:101CB000DB03903219F1A0910601B0910701FD01FB
:101CC00030813F7141F03596ABE3B3E033E0EB3D5B
:101CD000F307B0F3F4CFF0930701E093060182839A
:101CE0006383448312165CF420320CF02FE12F71D1
:101CF0002F71208311829F5F9093DB03089521E071
:101D0000F7CF8F929F92AF92BF92CF92DF92EF92D6
:101D10000F931F93CF93DF936C015B01C42FD22FDE
:101D2000802E912C023070F09401215031094E2DFB
:101D30004203C001439F900D112497FD0196959594
:101D40008795C81B10E000E00815190554F42D2FE5
:101D50004C2FB501C6010E94570E0F5F1F4FCE0DCD
:101D6000F3CFDF91CF911F910F91EF90DF90CF9044
:101D7000BF90AF909F908F900895E5E0F3E090E8DA
:101D80008281813081F48181803430F48F5F81835E
:101D900080818F5F808301C09083339683E0EB3333
:101DA000F80771F70895808187FDF7CF8D5FF2CF37
:101DB0003091780936FB222720F935FB882780F9F6
:101DC000281B822F220F280F80910403280F243F05
:101DD00008F468C023EF2093040334FB992790F99B
:101DE000832F881F8827881F981B892F990F980F8A
:101DF00080910303980F933D08F459C092ED90939E
:101E0000030332FF07C080910203811103C082E106
:101E10008093020380910203322F36953695292F45
:101E200026952695882351F15FEF580F50930203B2
:101E300042E1642F0E94732E911120C0852F0E94D1
:101E4000732E51E0452F481B842FE0910401F0913F
:101E5000050143E0430F408394E0920F692F681B14
:101E600061834383890F84835583369653E0EB3334
:101E7000F50710F5F0930501E0930401432F41505D
:101E8000550B5093FD024093FC022150330B3093CD
:101E9000FF022093FE028AE08093000388E0809393
:101EA000010308952C3008F096CF2CE094CF9C309D
:101EB00008F0A5CF9CE0A3CF85E093E090930501C7
:101EC00080930401DBCF282FE82FF0E0E85DF94F85
:101ED000E4918E2F69E10E94732E8093FB0235E01E
:101EE0008E2F632F0E94732E492F0E94732E909382
:101EF000FA024093F90288E0253009F480E18093EA
:101F0000F8020895E82F87FF04C071956195710963
:101F1000EF77E1341CF080E88E1BE82F0E2E000CCA
:101F2000FF0BE454FE4FE491E69FC001E79F900D44
:101F30001124880F892F881F990B0895CF92DF9263
:101F4000EF92FF920F931F93CF93DF93EC01888161
:101F5000282F2295269527709981892F880F880F21
:101F6000880F822B9295969597706CE070E00E9496
:101F7000932E6B010B8110E08C810E94820F080F61
:101F8000191FEA80F12C8C81B601805C0E94820FBF
:101F9000A701480F591FC801BA01DF91CF911F91C6
:101FA0000F91FF90EF90DF90CF900895EF92FF9206
:101FB0000F931F93CF93DF93FC018B01DB011296EC
:101FC000EC901297E40EF52EF11CCC918C2F82959B
:101FD0008695869583701196CC91CF70CC0FCC0FDF
:101FE000C82BD0E0C701880F991F880F991F63E0A5
:101FF00070E00E947F2E962F808182958170879558
:102000008827879563E070E0890F0E94820FC80FD0
:10201000D91FF80100810F7310E0005C1F4F64E0CE
:1020200070E080E48E0D0E94820FA801480F591FB6
:10203000CE01BA01DF91CF911F910F91FF90EF90E8
:102040000895EF920F9327E0429FA001112442557B
:102050005E4FE0900C0107E027E00E940F0B0F910C
:10206000EF900895CF92DF92EF920F93CF93D0909D
:10207000DD04DD2001F10E944E0D8CE190E0909393
:10208000E3048093E20489E390E09093E504809375
:10209000E4048EED96E00E94E20C40E068E370E01C
:1020A00080E190E00E94211041E068E370E086E466
:1020B00090E00E942110C091E1048091DC0488230B
:1020C000A1F1D11009C000E022E146E361E270E035
:1020D00085E290E00E94B20781E080930D01C2FB8F
:1020E000CC27C0F9C090DB048CE0C89E60011124AD
:1020F00085E2C80ED11CEC2E03E026E042ED56E04E
:1021000060E270E0C6010E940F0B26E048ED56E049
:1021100060E370E0C6010E940F0B1092DC04CF91C7
:102120000F91EF90DF90CF9008958C2F8370B9F2CC
:10213000F4CF1092D8041092390280917809982F28
:10214000907F41F1909138029F5F94310CF590930C
:10215000380290913802913011F09F30E9F485FFF8
:1021600003C09FEF9093390286FF05C0909139021A
:102170009F5F9093390287FF03C09FEF9093D8042D
:1021800084FF0AC08091D8048F5F8093D80408959B
:102190009FE0DDCF109238020895089590E080E02E
:1021A0000895CF92DF92EF92FF920F931F93CF93F8
:1021B000DF93082F142F469FE001479FD00D112475
:1021C000F12CE12C60E074E284EF90E0A7019E0125
:1021D0000E945B2B215031094109510991E02115E1
:1021E000310581E0480751056CF060E970ED83E04E
:1021F00090E0A7019E010E945B2B2150310941090B
:10220000510993E0013059F00330F9F0DF91CF919B
:102210001F910F91FF90EF90DF90CF900895109352
:10222000360280918100887F892B809381003093D2
:10223000890020938800109285001092840080917C
:102240006F00826080936F00E1CF10933702D093CC
:102250003502C093340280919100887F892B80934E
:10226000910030939900209398001092950010925D
:10227000940080917100826080937100C7CF8111BA
:1022800016C010921C058091120581110AC0809120
:10229000CE04E091CF04F091D00490818095892301
:1022A000808342E064EF71E083E00C94D110809170
:1022B0001705811110C080916F008D7F80936F0092
:1022C0008091CB04E091CC04F091CD049081809575
:1022D0008923808308950895FF920F931F93CF93CE
:1022E000DF93EC0190912205992309F464C08B01DE
:1022F000913071F480912105882351F0809120055F
:102300008F3F09F058C080E00E943F1110922105D4
:10231000E0911E05F0911F050995FF24F3948F2588
:1023200080931D0530E020E0A9019801220F331FA2
:10233000441F551FDE010E947A2B6C507E4F8F4F39
:102340009F4F28EE33E040E050E00E948D2B8091BB
:1023500022058130A1F480931C0520931805309349
:10236000190540931A0550931B0583E042E0BE0116
:10237000DF91CF911F910F91FF900C94D110F092AB
:1023800017052093130530931405409315055093BA
:10239000160580912105882351F081E09091200558
:1023A0009F3F09F080E08093120581E0DFCF8FEF3F
:1023B00080932005FACFDF91CF911F910F91FF906D
:1023C000089564E170E08BE492E00C946C118CE071
:1023D0000E943C07882339F00E94E11181E080933C
:1023E000E0048093DD0408950E94E1111092AF048F
:1023F00083E08093B20408950E94E1111092AF042B
:1024000081E08093DD040895CF93DF93C091DA04D7
:1024100086E0C802E0011124A6960E94E111109204
:10242000D10464EF71E185E396E00E947A0D6CEFD0
:1024300071E18EE296E00E947A0D88E28093D704E3
:10244000C093D6048FE28093D5048DE08093D404AA
:1024500081E08093D3048093D2048093DA04809344
:10246000D904DF91CF910895CF930E94E11110928A
:10247000D104C091B204C230B0F166EF75E189E1D8
:1024800096E00E947A0D64E072E1C13011F064EFD1
:1024900071E18BE096E00E947A0D8091D104880F63
:1024A000880F880F93E19093D70496E3981B90933D
:1024B000D60499E59093D50481508093D40491E09B
:1024C0009093D3049093D2048091F7028927C2306D
:1024D00009F080E08093DA0481E08093D90480934E
:1024E000AF04CF9108956CEF71E18FE196E00E9407
:1024F0007A0DCC2361F2C1CFCF93C091E104CC33EC
:1025000070F00E94BD0E0E94D80EC83741F481E0E1
:102510008093B20481E08093DD04CF91089588E038
:102520000E943C078823B1F30E943412F3CF6AE083
:1025300070E088EB91E00C946C11CF9380E40E94E2
:102540003C07C82F80E20E943C07C81BC1F0809165
:10255000DB042C2F0C2E000C330B820F932F911DBC
:102560008F3F980761F0059754F40E94971280916D
:10257000DB04C80FC093DB0481E08093DC0480910E
:10258000D804882329F00E94971281E08093DC040C
:1025900088E00E943C07882349F00E94E11181E015
:1025A0008093E0048093DD04CF91089584E00E943D
:1025B0003C078823C9F383E08093E004F5CF80E8EB
:1025C0000E943C078823C1F08091DA041816A4F415
:1025D0008150982F815024E09202F0011124ED5493
:1025E000FB4F20813181232BA1F39093DA040E94C9
:1025F000971281E08093D90480E10E943C078823F0
:1026000021F18091DA04482F082E000C550B2091FF
:10261000D104022E000C330B21503109421753070D
:10262000A4F48F5F982F8F5F24E09202F0011124B1
:10263000ED54FB4F20813181232BA1F39093DA04D9
:102640000E94971281E08093D9048091D20488235C
:1026500081F088E00E943C07882359F08091E604CD
:10266000811118C00E94F40A0E94E11181E0809358
:10267000D90484E00E943C07882379F0E091DA04D1
:1026800084E0E802F0011124ED54FB4F0190F08149
:10269000E02D09940E94EF0AE7CF08950E94991057
:1026A0008091AF04882341F00E94DF128091B20430
:1026B0008330D1F082E008958091E1048F5F8093B0
:1026C000E1048091F802882319F081508093F80288
:1026D000E091B204F0E0EE0FFF1FE750FD4F85914F
:1026E0009491FC010995E2CF81E008951092DF04F6
:1026F0001092DE041092E1048091E00481116CC01C
:102700008CEE9AE090931F0580931E058091220520
:102710008823B1F190E023E080912205981750F5CD
:10272000911116C0809171008D7F8093710080910E
:10273000CE04E091CF04F091D004308180958323C2
:102740008083809165008860809365009F5FE4CFFF
:1027500080916F008D7F80936F008091CB04E0911A
:10276000CC04F091CD043081809583238083209325
:102770008100ECCF109212051092170510922105DE
:1027800081E080932205EFE9F6E08491E0E8F6E04D
:10279000249190E0880F991FFC01E359F94F45916E
:1027A0005491FC01E15AF94FA591B4918C91822B7F
:1027B0008C9380916500877F8093650010929000D4
:1027C00089E0809391005093D0044093CF042093EC
:1027D000CE0480E00E943F111092D1046FE57DE0AD
:1027E00089EB96E00E947A0D1092DA0481E08093E2
:1027F000D90498E19093D70496E29093D60494E597
:102800009093D5049AE19093D4041092D3048093CA
:10281000D2048093E0048093DD040895FF920F9327
:102820001F93CF93DF9301E010E0FF24F394E09136
:102830000E05F0910F05AF014F5F5F4F50930F05ED
:1028400040930E052491822F807FC22FCF70D22F0C
:10285000D370803821F48D2F0E943F11E8CF80394A
:1028600009F03FC0E0911E05F0911F0509958F25E5
:1028700080931D05E0910E05F0910F05CF010196A3
:1028800090930F0580930E05E49180910D05909132
:102890002205D91760F6D13021F4909117059111D6
:1028A000C6CF8E0F87FDC3CFE82FF0E08C3390F4B6
:1028B000EE59FE4FE4916E2F70E081E0D11103C01C
:1028C000F0921C0583E04C2F469546954E5F0E9482
:1028D000D110ADCFEE0FFF1FEE59FF4F65917491F0
:1028E000ECCF87FD3FC03296F0930F05E0930E05C5
:1028F000FA014491A0913402B0913502322F242F75
:102900000E94AF2B6C507E4F8F4F9F4F28EE33E0CD
:1029100040E050E00E948D2B20931805309319055C
:1029200040931A0550931B05809118059091190545
:10293000A0911A05B0911B05892B8A2B8B2B61F472
:1029400081E090E0A0E0B0E0809318059093190535
:10295000A0931A05B0931B05DF91CF911F910F91A2
:10296000FF900895803DA1F4F0931105E0931005C8
:1029700080910B05882309F45ACFEC2FF0E0E25642
:10298000FE4FE491C0910D05EC0FE0930D054FCF84
:10299000803E21F5C11109C080911005909111056B
:1029A00090930F0580930E0542CF80910B058F5FAA
:1029B00080930B05980102C0220F331FCA95E2F7DE
:1029C000821713064CF35093110540931005809124
:1029D0000C0580930D0510920B0529CF803F09F05F
:1029E00026CF10922105B8CF0F931F93CF93DF937B
:1029F0008C01D62F80912105882349F180912005F3
:102A0000861790F1C0E080912205C81728F48C2F1A
:102A10000E943F11CF5FF7CF10922105D093200580
:102A2000109311050093100510930F0500930E05E8
:102A300010920D0510920C0510920B0581E0809309
:102A40002105DF91CF911F910F910C940E1480916D
:102A50001705882319F381E090912005961708F057
:102A600080E080931205DACFDF91CF911F910F9113
:102A7000089560E08DEF91E00E94F4141092B1048B
:102A80001092B004109259021092580280E3809381
:102A9000040384E180930303109202031092F7026F
:102AA0001092F50285E08093F602E5E0F3E080E81D
:102AB0008083339693E0EB33F907D1F7EBE3F3E050
:102AC0008081807E8083359683E0EB3DF807C1F7F7
:102AD0001092DB0380915B028F7080935B02809188
:102AE0005F028F7080935F02809163028F7080938A
:102AF0006302809167028F708093670280916B02FE
:102B00008F7080936B0280916F028F7080936F0241
:102B1000809173028F7080937302809177028F701F
:102B20008093770280917B028F7080937B028091EB
:102B30007F028F7080937F02ECEDF3E01482359674
:102B400094E0EC37F907D1F710927C0410928702D9
:102B500010928D02109293021092990210929F028D
:102B60001092A5021092AB021092B1021092B7021D
:102B70001092BD02109281041092860410928B0470
:102B8000109290041092950410929A0410929F044F
:102B90001092A4041092A9041092AE041092C202E2
:102BA0001092C7021092CC021092D1021092D6025B
:102BB0001092DB021092E0021092E5021092EA02FB
:102BC0001092EF021092F4028091F1028F71806CEA
:102BD0008093F1021092E1041092F8021092AF0477
:102BE0001092B20481E08093DD0408950C943915AD
:102BF000CF93C091F7028091E104CC2311F08C3384
:102C0000F0F02091B0043091B104203A99E63907F0
:102C100030F42F5F3F4F3093B1042093B0048C33D6
:102C200070F087FF03C088508093E10484E00E9425
:102C30003C07882361F0CC2339F00E94391581E0EC
:102C40008093DD04CF9108950E94F411F8CF88E0BD
:102C50000E943C07882399F30E943412F0CF97FF1B
:102C60000DC022273327281B390B4217130629F0E2
:102C700024F0480F90E080E031F408954423E9F314
:102C800080389105D4F760347105B8F79C01240FA2
:102C9000311D2138310514F040E8481B362F3770BC
:102CA00021E001C0220F3A95EAF7FB0133E0F595E8
:102CB000E7953A95E1F7F695FE2FEE27F795E7951C
:102CC000E80FF91FED5DFA4F8081822B819341500F
:102CD000D9F7D3CFCF93DF93FC0101900020E9F720
:102CE0003197AF01481B590BBC0183E799E00E9463
:102CF000B20AEC0142E050E060E172E083E799E063
:102D00000E94B20A8C0F9D1FDF91CF910895CF9240
:102D1000DF92EF92FF920E9499108091E1048F5F01
:102D20008093E1048091DE049091DF0401969093FA
:102D3000DF048093DE04E091E004F0E0EE0FFF1F7B
:102D4000EC53F94F85919491FC0109950E94532A07
:102D50006C01990FEE08FF080E94D509C616D70628
:102D6000E806F90631F06C257D258E259F250E9409
:102D7000FE2A8091E004833031F081E0FF90EF90F3
:102D8000DF90CF90089582E0F9CF7F928F929F924B
:102D9000AF92BF92CF92DF92EF92FF920F931F9369
:102DA000CF93DF939090D40422E0A22EA90C10912F
:102DB000D5047090D604C72D072C000CDD0B6E01D6
:102DC00041E0C41AD108E090D7040E2C000CFF0893
:102DD00042E0410F00E02A2DB601C70101970E9491
:102DE000B2078091D304882331F194E0B92EB10E5B
:102DF00022974B2DBE01870102501109C8010E9484
:102E00002F1684E0890DBE01680F711D87FD7A952C
:102E1000615071094B2DC8010E942F164A2DB60131
:102E2000C8010E944E07C8018B0D911D4A2DB601A5
:102E300001970E944E07D0E0C0E083EBC82E84E0EB
:102E4000D82E57015CE0A50EB11C8091D104082E4C
:102E5000000C990BC817D907B4F5F601828193814C
:102E6000009771F1872C072C000C99080091DA0467
:102E7000002E000C110B24E030E0C017D10711F038
:102E800030E020E0A501421B530B5093E304409334
:102E9000E2049092E5048092E4040E94E20CC017E0
:102EA000D10739F401E025E045E0B401C7010E94F3
:102EB000B20757E0750E219684E0C80ED11CC5CF2D
:102EC00073947394F8CF8091D2048823B1F040E1D9
:102ED00050E06FE476E08DE099E00E94072B60916E
:102EE000E604E6E06E9FB00111246D5B794F46E089
:102EF00050E08DE199E00E94072B1092D904DF91F8
:102F0000CF911F910F91FF90EF90DF90CF90BF90E6
:102F1000AF909F908F907F900895CF930E94FD0C6B
:102F2000C091DD04C1110E944E0D8091D904811120
:102F300001C0C1110E94C5168091DA04811103C03D
:102F400081E080930C01CF9108952F923F924F9290
:102F50005F926F927F928F929F92AF92BF92CF9229
:102F6000DF92EF92FF920F931F93CF93DF93CDB732
:102F7000DEB72D970FB6F894DEBF0FBECDBF209100
:102F8000B0043091B104211554E6350708F0C3C0F0
:102F9000C9018F719927892B09F0C5C020388CE0B1
:102FA000380740F5E091F502F0E0ED5DFE4FA080BE
:102FB00044E0B42EBA18B9826B2DBB0C770B88E0B5
:102FC00090E00E942A0EF12CE12C05E00A19002E57
:102FD000000C110B29812F5F298324302CF5B801B7
:102FE0006E0D7F1D88E090E00E942A0E3FEFE31AED
:102FF000F30AF0CF211559E1350738F58091F50234
:1030000063E00E94732E91119AC263E070E088E041
:1030100090E00E942A0E2091B0043091B104203833
:103020005CE0350708F086C28091020190910301AF
:10303000FC018581882309F44EC2369682E892E02D
:10304000A2E0EE3BFA07A8F3F3CF203885E2380779
:10305000C0F48091F50265E00E94732E9923A9F2D5
:103060008091000190910101FC018481882309F481
:10307000B8C335968EEB92E022E0E03FF207A8F36A
:10308000F3CF2115324348F5E091F502F0E0E9571E
:10309000FE4F00810F3FC1F01B821A82002E000CF0
:1030A000110BAA80BB80A016B10699F0B50188E08B
:1030B00090E00E942A0E2A813B812F5F3F4F3B8385
:1030C0002A832430310569F72091B0043091B1048E
:1030D00071C38A810E94090EEECF8091F402882389
:1030E00099F38091F50280FDEFCF60910303629523
:1030F000669566956370877041F00E94AF2A24E060
:1031000030E040E050E00E945B2B062E000C770B75
:1031100086E090E07ECF81E08093F7021092E10498
:1031200082E08093B2040E94BD0E0E94D80E80916E
:10313000F102982F929596959770963040F49F5F84
:103140009295990F907E8F71892B8093F1026AE39B
:10315000462E62E0562E74ED672E7EEF772E1E828D
:10316000EAE52E2EE2E03E2ED10111962C91822F1F
:10317000807F29F18091B0049091B104A301445D56
:103180005E4F841B950B68E077E00E947F2E7C01E8
:10319000813A954018F02F70F10121838091B2049B
:1031A000813069F4C70106978539954008F448C312
:1031B000EF2829F463E085E994E00E94F414B4E078
:1031C0002B0E311CE5E04E0E511CF4ED6F1AFEEF94
:1031D0007F0A2CE862162AE0720631F6AE80AA2039
:1031E00031F06AE070E088EC90E00E946C11709120
:1031F000B0047170D12CECEDF3E0A0E8FA2E8481DC
:10320000882309F43FC0711105C080819181019725
:103210009183808342815381808191819C01215ED1
:103220003F4F2F30310508F0F5C3148220917C0404
:10323000215020937C04A5E0B3E09C01205F3F4F28
:103240003B832A838A01005F1F4F2C9127FD15C005
:1032500011966C91119730E02817390774F0AA8005
:10326000BB802A153B054CF4262F30E02417350788
:1032700024F0201731070CF4FC92139623E0AB33B3
:10328000B20719F7359634E0EC37F30709F0B7CFFA
:10329000C12C8BE393E09B838A83AA81BB813C9101
:1032A000232F2F71C1F132953695377011964C91BD
:1032B0001197542F550F550F550F852F832B942F92
:1032C000929596959770820F911D382F3295330FF6
:1032D000307E232B2C939295990F907E8695869520
:1032E0008695892B11968C931197CD010E949E0F84
:1032F000AB016038710528F49C018034910508F415
:10330000B4C3EA81FB818081807E80838091DB036E
:1033100081508093DB032A813B812B5F3F4F3B83AE
:103320002A832B5D334009F0B8CF8091B0048170BF
:103330008983B12C312C82E892E09B838A832224FA
:1033400023947AE0472E512C612C712CAA81BB81E9
:1033500015968C911597882309F456C0A980A11061
:1033600006C08D919C91119701978D939C93AA8192
:10337000BB8114968C911497813009F09BC31296EF
:103380008D919C911397019713969C938E9312970E
:10339000EA81FB81A280EA2CF38000811181C801BF
:1033A0004F96459708F0A3C31582E5E0F3E0980136
:1033B000265F3F4FA701405F5F4F808187FD1FC0A1
:1033C000618190E080179107D4F082179307BCF4D5
:1033D00070E06E157F059CF06417750784F460E853
:1033E000B62EB082AA81BB8115968C91159781501B
:1033F00015968C93882309F4A3C3BB24B394339606
:10340000B3E0EB33FB07C9F6EA81FB813696FB8319
:10341000EA83EE5BF24009F099CFBB2031F06AE01D
:1034200070E088EC90E00E946C118091B004817093
:10343000A82EA0E000E08DE794E09B838A8340E81B
:10344000B42EEA81FB818481882309F420C4A11071
:1034500005C080819181019791838083EA81FB81FE
:103460001281812F9381E080F1809701215E3F4F8F
:103470002331310508F0C5C31482E5E0F3E0A7016C
:10348000445F5F4FBC01605F7F4F208127FD1DC0FF
:10349000B18130E02E153F05C4F024173507ACF498
:1034A0002B2F30E02817390784F0261737076CF4E4
:1034B000B082AA81BB8114962C9114972150149646
:1034C0002C93222309F4C7C3A1E03396B3E0EB3376
:1034D000FB07D9F6DCC3F0930301E0930201A0914E
:1034E000F502B0E0AD5DBE4F9C9183E0891B22E800
:1034F00030E031832083B0E18B02C001112493833B
:103500008283148281E085838091B0049091B1041C
:103510008115944608F007CE8091F602882309F4BD
:1035200002CE8091F5028F5F843609F486C18093C4
:10353000F502F9CD2115E9E13E0708F036C1809189
:10354000F50263E00E94732E992321F083E00E942C
:10355000090EDACFC9016CE271E00E947F2E862F3E
:1035600066E00E94732E092F10E025E0929F500123
:103570001124C501865C9D4F9B838A83DC018C915D
:103580008F7E8C930E94AF2A28E030E040E050E02C
:103590000E945B2B262F2295220F220F207CEA818E
:1035A000FB8132813F73232B2283AB01BC0132E0CC
:1035B00076956795579547953A95D1F7838140FB66
:1035C00080F983830E94AF2A25E030E040E050E09C
:1035D0000E945B2B862F8F70AA81BB816C91607FCC
:1035E000682B6C938CE314968C93149712968C91A1
:1035F0001297817F846312968C930E94AF2A24E0F5
:1036000030E040E050E00E945B2B672B682B692B79
:1036100011F40E94AF2A85E0809FF001819FF00D98
:103620001124E65CFD4F81819281817082628183E9
:103630009E7F928385E0809F9001819F300D1124B1
:10364000F901E65CFD4F848190E0D901A55CBD4F96
:103650006C9166956F7070E00E94932E63507109B3
:10366000245C3D4FD9018C9186958770861717068B
:1036700039F030F06770660F8281817F682B62833A
:1036800085E0809FF001819FF00D1124E65CFD4FE5
:1036900080818F71806A808381818E7F8183E090B9
:1036A0000403E694E694F0900303F694F6940E94E3
:1036B000AF2A000F111F000F111F065A1D4F29E3DB
:1036C00030E040E050E00E945B2B6C5F7F4F8F4FFB
:1036D0009F4F6F73F8018081807C682B60830E940C
:1036E000AF2A23E230E040E050E00E945B2B6D5FA8
:1036F0007F4F8F4F9F4F362F3295330F330F307CD4
:10370000D8012C912F73232B2C9322E0969587952B
:10371000779567952A95D1F76F70606111966C93D4
:103720000E94AF2A20E031E040E050E00E945B2B95
:10373000F801628350E040E0B8018A819B810E94D9
:10374000D60F4B015C016E2D70E068197909072EC8
:10375000000C880B990B0E94472D2B013C016F2D0B
:1037600070E06A197B09072E000C880B990B0E94E8
:10377000472DA30192010E943E2C20E030E040E062
:1037800053E40E94022E2BED3FE049E450E40E94F6
:103790009D2C20E030E040E05FE30E94BF2B0E94C0
:1037A0000F2DD80113966C93AFCE2038B5E23B07AE
:1037B00008F456CC203F324308F4A6CE8091B204E0
:1037C000813009F0A1CE8091F40281119DCE80E17B
:1037D00090E09093F3028093F2028EE18093F402E2
:1037E00093CEF0930101E09300010E94AF2AA090D4
:1037F0000001B0900101BB82AA8223E830E0D5012C
:103800002D933C9323E030E040E050E00E945B2B9E
:10381000F4E0660F771FFA95E1F76D5F7F4FF501D2
:10382000738362838FEF84838091F50265E00E9449
:10383000732E992309F468CE89CE1092F50273CCC9
:10384000A701B101C2010E94D60F4B015C017B832D
:103850006A839D838C838C01035011096B0123E0E3
:10386000C21AD108E5E0F3E0AB01495F5F4F9C016C
:10387000295F3F4FD10111966C91862F807F09F40B
:1038800003C4B3E0EB33FB0709F41EC4808187FD5A
:103890001CC0718190E08C159D05BCF084179507C4
:1038A000A4F4872F90E0801791077CF0821793078C
:1038B00064F480E88083862F807F80516F70682B4E
:1038C000D10111966C93B1E0BE833396D3CF4330D0
:1038D00009F486C0443009F072CCD2011196BC9133
:1038E0008B2F829586958770F201F281F170FF0F20
:1038F000FF0FFF0FF82BFF83D1011396FC9010E010
:1039000000E0AF2EB12CBC86AB86AB84BC840A151C
:103910001B050CF077C0298120320CF073C04F2DAD
:103920006C817D818A819B810E94570E0F5F1F4FA2
:1039300039813F5F3983E9CFD20111960C911197FC
:10394000802F82958695877012960C910170000FDA
:10395000000F000F082B10E0FB85E3E0FE9FF00155
:103960001124F595E795FC87EB87C8019595879518
:10397000E81BE983D12CC12CC016D1060CF01FCC5A
:10398000F981F0320CF01BCC1F1644F42F2F4F2D71
:103990006C817D818A819B810E94570E2FEFC21A14
:1039A000D20A39813F5F3983E7CFF2010181802F4D
:1039B00082958695877002810170000F000F000FBD
:1039C000082BFB8553E0F59F900111243595279531
:1039D000D10113964C91B501C4010E94810EEFCB29
:1039E000F2010181802F8295869587700281017096
:1039F000000F000F000F082B2D85220FFB85F01BF9
:103A00002F0F1CC4D1011396EC901397DE0C139664
:103A1000DC92D5CBA091FC02B091FD029C01205F0D
:103A20003F4FA217B3070CF006CC209100032A0FDA
:103A30003B2F311D821793070CF0FDCBA091FE02A6
:103A4000B091FF029A01205F3F4FA217B3070CF01D
:103A5000F2CB209101032A0F3B2F311D4217530750
:103A60000CF0E9CBDD24D394E6CB6091FC0270919D
:103A7000FD02461757070CF44ECC80910003860FC9
:103A8000972F911D481759070CF045CC4091FE0225
:103A90005091FF02241735070CF43DCC80910103AF
:103AA000840F952F911D281739070CF034CCCC24A6
:103AB000C39431CC2091040326952695EA81FB819D
:103AC00080819181821B9109809708F061CC0E94CE
:103AD000AF2AA30192010E945B2B672B682B692BF5
:103AE00009F056CCAA81BB8114962C9251CC8091BE
:103AF000FC029091FD029801265F3F4F82179307C9
:103B00000CF053CC20910003820F911D0817190768
:103B10000CF04BCC8091FE029091FF029701205F48
:103B20003F4F821793070CF040CC20910103820F86
:103B3000911DE816F9060CF038CC3324339435CCBB
:103B400062E08FE994E00E94F41480915802909111
:103B500059028C599F4F909359028093580280E0EC
:103B60000E94630FB6E0AB0E802FA0FA87F9809316
:103B7000F0028A2D86958F718093F102EA81FB8194
:103B8000848181113BC0B701601B710B072E000CB3
:103B9000880B990B0E94472D4B015C01B8016E19EF
:103BA0007F09072E000C880B990B0E94472DA50159
:103BB00094010E943E2C20E030E040E053E40E945B
:103BC000022E2BED3FE049E450E40E949D2C20E0C2
:103BD00030E040E05FE30E94BF2B0E940F2D40E4E5
:103BE000460FAA81BB8112966D917C911397E12CAF
:103BF00001E028E08D919C910E94810EBB24B3943A
:103C000003CC4091FC025091FD029701245F3F4F8D
:103C1000421753070CF031CC20910003240F352FAD
:103C2000311DE216F3060CF028CC4091FE025091B3
:103C3000FF029C01205F3F4F421753070CF01DCC41
:103C400020910103240F352F311D821793070CF0AB
:103C500014CC01E012CC62E08FE994E00E94F414ED
:103C600080915802909159028C599F4F909359021C
:103C70008093580280E00E94630F1A5F10FBE7F800
:103C8000E092F00216951F711093F102A1E0EA8113
:103C9000FB813596FB83EA83EF5AF44009F0D1CBE0
:103CA000AA2331F06AE070E088EC90E00E946C1189
:103CB000A0E0B12C8EEB92E09B838A8330E8A32EA8
:103CC000EA81FB818481882309F484C020813181C9
:103CD0007901F2E0EF1AF108EA81FB81F182E082DA
:103CE0001281812F9381A901435E5F4F45315105B8
:103CF00070F51482E5E0F3E0A701465F5F4FBC0179
:103D0000665F7F4F208127FD1CC0B18130E02E15FA
:103D10003F05BCF024173507A4F42B2F30E02817FB
:103D200039077CF02617370764F4A082AA81BB818B
:103D300014962C911497215014962C93222371F1F0
:103D4000A1E03396B3E0EB33FB07E1F643C04091CB
:103D5000FC025091FD02285F3F4F4217530754F673
:103D600020910003420F511DE416F5061CF6409108
:103D7000FE025091FF029C01265F3F4F42175307FE
:103D80000CF0B8CF20910103240F352F311D82177D
:103D900093070CF0AFCFBB24B394ACCF62E08FE9B4
:103DA00094E00E94F41480915802909159028C5929
:103DB0009F4F909359028093580280E00E94630FB6
:103DC0001C5F10FBE7F8E092F00216951F7110934C
:103DD000F102A1E0EA81FB813596FB83EA83E05F93
:103DE000F24009F06DCFAA2331F06AE070E088EC70
:103DF00090E00E946C118091F4028823F1F04091D0
:103E0000F2025091F302E5E0F3E0BA01605E7F4F09
:103E1000908197FD14C021819057903180F430E05B
:103E20002417350764F0261737074CF490E8908381
:103E300081508093F402882341F080E016C03396CD
:103E400033E0EB33F30721F7F8CF62E08FE994E03A
:103E50000E94F41480915802909159028053984F17
:103E6000909359028093580281E0D11008C0C1108C
:103E700006C0311004C0011102C0BB20D9F091E08E
:103E80009093F7022091B0043091B1042F5F3F4F1F
:103E90003093B1042093B0049091F70291110DC0BA
:103EA00081113FC088E00E943C078823F1F00E9406
:103EB00034121BC01092F702E5CF61E087EF95E066
:103EC0000E94F41485E00E94630F8091F70288231A
:103ED00039F08091F60281508093F602811127C05B
:103EE0001092E10482E08093B20481E08093DD04CB
:103EF0002D960FB6F894DEBF0FBECDBFDF91CF91E8
:103F00001F910F91FF90EF90DF90CF90BF90AF90F7
:103F10009F908F907F906F905F904F903F902F90E9
:103F2000089561E08BEA94E00E94F414CECF1092E1
:103F3000F7021092E10480E38093040384E180930C
:103F40000303109202038091F5028B3018F08A501F
:103F50008093F502E5E0F3E080E88083339653E058
:103F6000EB33F507D1F7EBE3F3E08081807E8083CC
:103F7000359683E0EB3DF807C1F71092DB038091A3
:103F80005B028F7080935B0280915F028F708093E1
:103F90005F02809163028F70809363028091670259
:103FA0008F708093670280916B028F7080936B0299
:103FB00080916F028F7080936F02809173028F7077
:103FC00080937302809177028F7080937702809143
:103FD0007B028F7080937B0280917F028F70809331
:103FE0007F02ECEDF3E01482359694E0EC37F907AC
:103FF000D1F710927C041092870210928D021092D9
:1040000093021092990210929F021092A5021092B0
:10401000AB021092B1021092B7021092BD02109240
:1040200081041092860410928B04109290041092D6
:10403000950410929A0410929F041092A404109276
:10404000A9041092AE041092C2021092C7021092FC
:10405000CC021092D1021092D6021092DB02109282
:10406000E0021092E5021092EA021092EF02109222
:10407000F4028091F1028F71806C8093F1021092B2
:10408000F8021092B20431CF62E08FE994E00E940E
:10409000F41480915802909159028C599F4F90933B
:1040A000590280935802D2018C918F700E94630F45
:1040B000882DA0FA87F98093F002C501969587951F
:1040C0008F718093F1027BC8F201F281F9830F2F87
:1040D00006950770D10112968C918E0D9F2D911D22
:1040E000F201648170E00E94932E63E0600F70E043
:1040F0000E947F2E6D87892B09F061C8ED85EF83C3
:10410000D2011196BC91B8871B2F16951F70E1172D
:1041100008F055C8E981E295E370EC5FEB87E9832D
:10412000609104036695669570E068197909072E19
:10413000000C880B990B0E94472D6B017C0160914C
:1041400003036695669570E06A197B09072E000CDB
:10415000880B990B0E94472DA70196010E943E2CC7
:1041600020E030E040E053E40E94022E2BED3FE0DF
:1041700049E450E40E949D2C20E030E040E05FE301
:104180000E94BF2B0E940F2DF62ED2014C91842F3E
:10419000829586958770B885B170EB2EEE0CEE0C8B
:1041A000EE0CE82A017009871A8689859A85880F9E
:1041B000991F019798E09E0D989FD02C1124EF81B4
:1041C000E1111BC0D1011396FC92842F8F708430B3
:1041D000A1F4123090F0E12FE150FF0B9F015D2D13
:1041E0005203C001539F900D112497FD01969595A0
:1041F0008795AF2DA81BF101A3834F70423009F4BE
:10420000D4CB08F064CB442309F496CB413011F0B1
:104210000C94DF18D20111960C911197802F829582
:104220008695877012960C910170000F000F000F99
:10423000082BBD85B1700B1BED2C2B854F2DCBCBE7
:104240004F925F926F927F928F929F92AF92BF92A6
:10425000CF92DF92EF920F931F93CF93DF93CDB75F
:10426000DEB764970FB6F894DEBF0FBECDBFB09037
:10427000B20423E0B21236C01092F8028091F80224
:104280002091F902829F202D11249091FA02899F9A
:10429000902D11243091FB02839F802D112433E84F
:1042A00034BD909597BD91EF909380002093880046
:1042B00080938A001092DD0464960FB6F894DEBFF6
:1042C0000FBECDBFDF91CF911F910F91EF90DF9087
:1042D000CF90BF90AF909F908F907F906F905F90A6
:1042E0004F9008958091DD049091AF04992351F08F
:1042F0009091D904911103C0882309F4BDCF0E9485
:10430000C516BACF882309F4B9CF0E94FA0AC09023
:104310000403C694C694D12C009103030695069518
:1043200010E08091F702882309F49FC14091E104D5
:1043300046954695463088F48EE1489FA0011124A9
:104340004B5C5C4FB80167507109EE24E3940FE0B9
:104350002FE0C60107970E940F0B05E013E0F8015C
:10436000808187FD07C0618170E043E08250990B36
:104370000E942F160D5F1F4FF3E00B331F0779F7D5
:10438000ABE3CA2EA3E0DA2ED6018C918F7171F0C7
:10439000C6010E949E0FDC01CB01EE24E39402E0F3
:1043A00022E04FE153E0BD010E940F0BB5E0CB0EC0
:1043B000D11CEBEDCE16E3E0DE0631F76AE3862E84
:1043C00062E0962E84ED9EEF7AE5A72E72E0B72E7E
:1043D000E8E06E2EE7E07E2EF5E04F2E512CD50161
:1043E00011962C91207FFC01E45DFE4F6F0122238A
:1043F00049F18091B0049091B1048E1B9F0BB301E1
:104400000E947F2E8C01005D124017FF03C01195A2
:10441000019511090A5C1240AC01B501C4010E946A
:10442000D60F101611060CF488C1FC013397CB018E
:104430000397EE24E3940AE02AE041E253E0BF014F
:104440000E940F0BF4E0AF0EB11C25E0820E911C10
:10445000C6014CE8C4164AE0D40609F66091F102A0
:10446000462F4295469547704630D0F48EE1489FDE
:10447000A00111244B5C5C4F8091F002282F221F79
:104480002227221F6F71660F622B6750770B8F7781
:10449000EE24E3940FE02FE08750990B0E940F0B5E
:1044A0003CEDC32E33E0D32ED60114968C91149795
:1044B000882371F012966D917C911397EE24E3940A
:1044C00000E120E149EE53E08D919C910E940F0B99
:1044D000B5E0CB0ED11CECE7CE16E4E0DE0621F70A
:1044E00022E8C22E22E0D22ED60115968C91159785
:1044F000882371F012966D917C911397EE24E394CA
:1045000000E12AE049E054E08D919C910E940F0B5C
:10451000B6E0CB0ED11CEEEBCE16E2E0DE0621F7C4
:104520009DE7C92E94E0D92ED60114968C9114974C
:10453000882371F012966D917C911397EE24E39489
:1045400000E12CE04DE154E08D919C910E940F0B15
:10455000B5E0CB0ED11CEFEACE16E4E0DE0621F783
:104560008EEBC82E82E0D82ED60114968C9114972B
:10457000882371F012966D917C911397EE24E39449
:104580000AE02AE045E354E08D919C910E940F0BD4
:10459000B5E0CB0ED11CE0EFCE16E2E0DE0621F74F
:1045A0008091F402882371F06091F2027091F3021D
:1045B000EE24E39400E220E149E454E080E790E057
:1045C0000E940F0B0E94B80D8091B204882309F459
:1045D000D4C0823009F4E2C01C861B8618E0FE01BC
:1045E0003D96DF01212F1D922A95E9F7809159020E
:1045F0008F93809158028F9381E392E09F938F93E2
:10460000CE010B969F938F930E94AD2E6C011A8260
:104610001982FE013396DF011D921A95E9F74AE0EF
:10462000BE016F5F7F4F80915802909159020E94A6
:10463000102B2AEFA6012403C001259F900D112401
:1046400080589F4F9093E3048093E2041092E50416
:104650001092E404CE0101960E946A160F900F900A
:104660000F900F900F900F9009CEB1101AC02091AB
:10467000E1042C3350F48CE390E0821B91096DEF40
:104680007FEF0E94932EC60ED71EB80163507109AA
:10469000EE24E3940CE020E14FEF52E0C6010397D3
:1046A0005ACEA2E0BA12F1CF2091E1042051330B8F
:1046B000229FC001239F900D900D112497FD4F96CE
:1046C00025E0959587952A95E1F70897C80ED91E9C
:1046D0008091B0049091B10467E070E00E947F2E59
:1046E000892B99F680E00E94630F0E94AF2AB4E103
:1046F0008B2E912CA12CB12CA50194010E945B2B37
:104700006095862F8F776091F0026078682B6093B8
:10471000F0020E94AF2AA50194010E945B2B8FE258
:10472000861B9091F00280FB97F99093F00286959A
:104730008F71806A8093F102A8CF073011050CF0C9
:1047400081CEF8010430110514F0E3E0F0E0202FF1
:10475000220F220F265FA2014E1B5F0B440F000F9A
:10476000111FDC01A01BB10BCB01039701E0BD01C0
:104770008E0F9F1F0E94B20765CE8FE190E090934D
:10478000E3048093E2048EE190E09093E50480934B
:10479000E40483E192E00E946A161ECF8091F70242
:1047A0008823D1F185E290E09093E3048093E204C2
:1047B0008EE190E09093E5048093E4048FE192E031
:1047C0000E946A168091E1048C3308F405CF00E062
:1047D00027E04BE260E370E08AE290E00E94B207DB
:1047E0008091F702882339F18FE894E027E330E0E5
:1047F0003093E3042093E20421E330E03093E504B6
:104800002093E4040E94E20C41E060E370E08BE25C
:1048100090E00E942110E0CE8BE290E09093E304C0
:104820008093E2048EE190E09093E5048093E404A9
:1048300089E292E0C5CF89E894E0D8CF1F920F9229
:104840000FB60F9211248F939F938091E100909166
:10485000E100937F9093E10083FF0FC01092E90085
:1048600091E09093EB001092EC0092E39093ED00B6
:1048700010920A0598E09093F00082FF22C093E026
:104880009093E9009091F200992319F09AE39093A4
:10489000E8009091FB04992341F09091FB04915022
:1048A0009093FB04911101C05D9A909109059923A1
:1048B00041F090910905915090930905911101C023
:1048C000289A84FF18C08091E2008E7E81608093D8
:1048D000E2008091E1008F7E8093E1008091FC04F2
:1048E0008E7E80618093FC049F918F910F900FBE0C
:1048F0000F901F90189580FFF7CF8091E2008E7E79
:1049000080618093E2008091E1008E7E8093E100DF
:104910008091FC048E7E8160E5CF1F920F920FB6CE
:104920000F921124CF92DF92EF92FF920F931F9379
:104930002F933F934F935F936F937F938F939F93A7
:10494000AF93BF93EF93FF93CF93DF93CDB7DEB7D2
:104950006C97DEBFCDBF1092E9008091E80083FF25
:1049600025C068E0CE0145960E94C80982EF809379
:10497000E8008D8987FF39C09091E80090FFFCCF57
:10498000982F907609F034C19E894F89588D2F89D0
:10499000F88C911131C0803861F58091FA048093D0
:1049A000F1001092F1008EEF8093E8006C960FB644
:1049B000F894DEBF0FBECDBFDF91CF91FF91EF9195
:1049C000BF91AF919F918F917F916F915F914F9127
:1049D0003F912F911F910F91FF90EF90DF90CF901B
:1049E0000F900FBE0F901F9018959EEF9093E800C8
:1049F000C7CF1092F100D5CF913059F48111D3CFA8
:104A00004130510581F68091FA048D7F8093FA043C
:104A1000CACF933049F48111C6CF4130510519F600
:104A20008091FA048260F2CF953041F48091E800E1
:104A300080FFFCCF20682093E300B5CF963009F0CB
:104A4000A9C00B8D1C8D22E01092E9001092F80491
:104A50001092F704F2122EC01092F6041092F50490
:104A60000E9497091F8299E09983FA8291E09E83C0
:104A700090EA98879AEF99872091F7043091F8048B
:104A8000275F3F4F3C832B838D831092E900109268
:104A9000F8041092F7041093F6040093F50449E02B
:104AA00050E0BE016F5F7F4F80E00E9471090E945D
:104AB000970979CF1093F6040093F5040E947B08C0
:104AC000DC0112960D911C910115110509F451C1DB
:104AD000D801ED91FC910480F581E02DBE016B5E63
:104AE0007F4FC8010995009709F03EC1F801008584
:104AF0001185EACFF3E0FF120EC08F89882309F4F5
:104B000040C0823061F440E860E180EF9DE00E94A7
:104B10003E09811148CF81E28093EB0047CF81307D
:104B200029F440E86BE084EE9DE0F1CF833099F703
:104B30000E947B08DC011296ED90FC908E010F5FC5
:104B40001F4F6801E114F10479F0D701ED91FC9158
:104B50000680F781E02DB801C7010995080F111DE6
:104B6000F701E084F184EECFD8011C92F6010190A8
:104B70000020E9F73197BF016C197D0940E0C601BB
:104B8000C6CF6EEC7DE0FB01449150E080E80E94CE
:104B9000710909CF973009F4BECF983021F481E034
:104BA0008093F10000CF993009F0FDCE837009F0B9
:104BB000B2CFECEEF1E081E031E096E321912223E7
:104BC00071F08093E9003093EB00DF0111972C9195
:104BD0002093EC009093ED008F5F873079F78EE79C
:104BE0008093EA001092EA008F8980930A05DBCE59
:104BF0008B8D9C8D1092E9001092F8041092F704AE
:104C00009093F6048093F504898D811192C08E896A
:104C10009D89913A49F4813209F07DCF47E050E017
:104C200063E171E080E0B3CF913209F074CF833259
:104C300069F48F89988DB0E0A0E080930F01909384
:104C40001001A0931101B0931201ADCE803269F42E
:104C50008091E80082FFFCCF67E083E191E00E9451
:104C6000C8098BEF8093E8009ECE823209F09BCE7C
:104C70008F8980931A01EEEFFFE7859194918B3F26
:104C80009C4D51F1E0E0F8E0809113019091140106
:104C9000A0911501B0911601803B9440A105B1058A
:104CA000F1F480911A0180FD1AC0EE3F8AE0F80706
:104CB00089F587E797E791838083809160008093EF
:104CC000F90488E19BE00FB6F894A8958093600002
:104CD0000FBE9093600067CEEEEFFAE0D5CF8081F3
:104CE00091818737974709F05ECEA8958091600043
:104CF0008861809360008091F90480936000EE3FAA
:104D00002AE0F20789F08091FE0A9091FF0A9183D0
:104D1000808349CE808191818737980751F29093A3
:104D2000FF0A8093FE0AC5CF1092FF0A1092FE0A76
:104D30003ACE0E947B08DC0112960D911C91011560
:104D4000110509F4E8CED801ED91FC910190F081B4
:104D5000E02DBE016B5E7F4FC8010995811123CE06
:104D6000F80100851185EBCF181619060CF41BCE3F
:104D7000D2CEF1E0FF12BECE62ED7DE004CF1F92F5
:104D80000F920FB60F9211242F933F938F939F93FF
:104D9000AF93BF938091ED049091EE04A091EF0446
:104DA000B091F0043091EC0423E0230F2D3758F537
:104DB0000196A11DB11D2093EC048093ED04909306
:104DC000EE04A093EF04B093F0048091F10490916D
:104DD000F204A091F304B091F4040196A11DB11D59
:104DE0008093F1049093F204A093F304B093F4043D
:104DF000BF91AF919F918F913F912F910F900FBED7
:104E00000F901F90189526E8230F0296A11DB11D43
:104E1000D2CF1F920F920FB60F9211242F933F9370
:104E20004F935F936F937F938F939F93AF93BF93B2
:104E3000EF93FF9380911C05882329F1809112053F
:104E4000811121C080911D0581111DC0609118053F
:104E50007091190580911A0590911B0520913702D8
:104E600030E050E040E00E948D2B623071058105FA
:104E7000910548F49091CE04E091CF04F091D004D4
:104E80008081892780838091180590911905A091D0
:104E90001A05B0911B05892B8A2B8B2BE9F0809189
:104EA000180590911905A0911A05B0911B0501975D
:104EB000A109B1098093180590931905A0931A05CB
:104EC000B0931B05892B8A2B8B2B31F48091210504
:104ED000882399F00E940E14FF91EF91BF91AF913A
:104EE0009F918F917F916F915F914F913F912F9102
:104EF0000F900FBE0F901F90189580E00E943F11F9
:104F0000EBCF1F920F920FB60F9211242F933F9366
:104F10004F935F936F937F938F939F93AF93BF93C1
:104F2000EF93FF9380911705882309F472C0809155
:104F3000130590911405A0911505B0911605892BC4
:104F40008A2B8B2B09F451C080911D0581111DC046
:104F500060911305709114058091150590911605C7
:104F60002091360230E050E040E00E948D2B62300C
:104F700071058105910548F49091CB04E091CC0432
:104F8000F091CD04808189278083809113059091D1
:104F90001405A0911505B0911605892B8A2B8B2B32
:104FA00099F08091130590911405A0911505B09189
:104FB00016050197A109B109809313059093140573
:104FC000A0931505B0931605FF91EF91BF91AF9196
:104FD0009F918F917F916F915F914F913F912F9111
:104FE0000F900FBE0F901F901895109212051092FF
:104FF000170580916F008D7F80936F008091CB04A7
:10500000E091CC04F091CD04908180958923808338
:10501000DBCF80911D058111D7CF60911305709171
:10502000140580911505909116052091360230E007
:1050300050E040E00E948D2B6230710581059105A2
:1050400018F69091CB04E091CC04F091CD048081CE
:105050008927DDCFE3E2F9E01382128288EE93E044
:10506000A0E0B0E084839583A683B78386EF91E0C8
:10507000918380838FEF9FEF95878487E3E7F9E043
:105080001382128288E092E091838083089578945D
:1050900084B5826084BD84B5816084BD85B582603D
:1050A00085BD85B5816085BD80916E0081608093EE
:1050B0006E00109281008091810082608093810057
:1050C0008091810081608093810080918000816067
:1050D0008093800080919100826080939100809104
:1050E0009100816080939100809190008160809315
:1050F00090008091C10084608093C1008091C100C4
:1051000082608093C1008091C10081608093C10062
:105110008091C30081608093C3008091C000826051
:105120008093C0008091C20081608093C200809112
:105130007A00846080937A0080917A008260809304
:105140007A0080917A00816080937A0080917A0061
:10515000806880937A0010920A051092FA041092E7
:10516000FC048091D70081608093D70080EA80930F
:10517000D80089B5806189BD89B5826089BD09B4CF
:1051800000FEFDCF61E070E080E090E00E94FA094F
:105190008091D8008F7C80618093D8008091E0005E
:1051A000807F8093E0008091E1008E7E8093E1001B
:1051B0008DE08093E200559A209A81EC80937C00E8
:1051C00085B1806F85B984B1877E84B984B1876EDB
:1051D00084B95E9A5F988AB1806D8AB9769A6E9822
:1051E00081B3806F81BB899880B38D7080BB80E56F
:1051F0008CBD81E08DBD85E090E00E94DF0A5F9A62
:1052000085E090E00E94DF0A5E985C98EDE6FDE0A4
:1052100084918EBD00000DB407FEFDCF31968DE068
:10522000EA37F807A9F75C9A81E8809364008091D7
:1052300065008160809365000E942C070E94E40A4B
:1052400087FF15C05C9885EA8EBD00000DB407FE8F
:10525000FDCF5C9A2E982F982D98809164008062E3
:105260008093640081E083BF889513BEFCCF0E94C9
:10527000E40A82FF46C02D980E94E40A84788438AC
:10528000D9F42D9A88EC90E00E94DF0A2F9882E0F2
:1052900090E00E94452B8F3F29F06FEF82E090E075
:1052A0000E944D2B84EF91E00E94DF0A2F9A0E940A
:1052B000E40A84788438D9F30E94E40A8471843142
:1052C000D9F42D9A88EC90E00E94DF0A2E9882E0B3
:1052D00090E00E94452B882329F060E082E090E076
:1052E0000E944D2B84EF91E00E94DF0A2E9A0E94CB
:1052F000E40A84718431D9F388EC90E00E94DF0ADB
:10530000B6CF2D9A82E090E00E94452B882369F168
:105310000E94F40A80E180930E011092EB04EAE708
:10532000FDE085919491FC0109950E94F40AFF2407
:10533000F394D6E000E010E0EE24E3948FB7F89405
:105340004091ED045091EE046091EF047091F004EF
:105350008FBF8091E904882359F01092E904011568
:10536000110561F30E940000E9CF0E94EF0AD2CF3D
:105370008091EA04F42FF81B8F2F90910E01F917FA
:1053800038F48F5F891758F7F3BE889513BEE7CFBF
:10539000E092E9044093EA048091E7049091E804E4
:1053A00001969093E8048093E704809178098093B4
:1053B00077090E94E40A80937809E091EB04DE9F6C
:1053C000F0011124E458F24F85919491FC01099564
:1053D000C82FE091EB04DE9FF0011124E258F24F58
:1053E00085919491FC0109950E942C078091EB0412
:1053F000C81709F4B4CFC093EB04DC9FF00111246B
:10540000E658F24F85919491FC010995A8CF8F92AF
:105410009F92AF92BF92CF92DF92EF92FF92CF9383
:10542000DF93EC01688179818A819B816115710527
:105430008105910521F464E279ED8BE597E02DE19A
:1054400033EF41E050E00E945B2B49015A019B0180
:10545000AC01A7EAB1E40E947A2B6B017C01ACEEAF
:10546000B4EFA50194010E94882BDC01CB018C0DC7
:105470009D1DAE1DBF1DB7FF03C00197A109B04818
:1054800088839983AA83BB839F77DF91CF91FF9015
:10549000EF90DF90CF90BF90AF909F908F90089546
:1054A0000E94072A08958BE191E00E94072A08953F
:1054B000B0E0A0E080931B0190931C01A0931D011C
:1054C000B0931E0108958F929F92AF92BF92CF9298
:1054D000DF92EF92FF92CF93DF93EC0168817981A5
:1054E0008A819B81611571058105910521F464E232
:1054F00079ED8BE597E02DE133EF41E050E00E943C
:105500005B2B49015A019B01AC01A7EAB1E40E945F
:105510007A2B6B017C01ACEEB4EFA50194010E94E3
:10552000882BC60ED71EE81EF91EF7FE06C081E0C6
:10553000C81AD108E10880E8F80AC882D982EA824C
:10554000FB82C701B6019F77DF91CF91FF90EF906B
:10555000DF90CF90BF90AF909F908F9008958F92E3
:105560009F92AF92BF92CF92DF92EF92FF926091A3
:105570001F017091200180912101909122016115FC
:1055800071058105910521F464E279ED8BE597E0E1
:105590002DE133EF41E050E00E945B2B49015A01BD
:1055A0009B01AC01A7EAB1E40E947A2B6B017C015C
:1055B000ACEEB4EFA50194010E94882BC60ED71E55
:1055C000E81EF91EF7FE06C081E0C81AD108E108FE
:1055D00080E8F80AC0921F01D0922001E0922101D8
:1055E000F0922201C701B6019F77FF90EF90DF9004
:1055F000CF90BF90AF909F908F90089560931F01C0
:105600007093200180932101909322010895FB0162
:10561000DC0102C005900D9241505040D8F708952A
:10562000BB274A3031F4992322F4BDE2909581954D
:105630009F4F0C941C2BBB27FB015527AA27880FD3
:10564000991FAA1FA41710F0A41B83955051B9F7F6
:10565000A05DAA3308F0A95DA193009779F7B11175
:10566000B1931192CB010C94352BDC01FC01672F17
:1056700071917723E1F7329704C07C916D93708329
:105680006291AE17BF07C8F30895F999FECF92BD96
:1056900081BDF89A992780B50895262FF999FECFF4
:1056A0001FBA92BD81BD20BD0FB6F894FA9AF99A3F
:1056B0000FBE01960895052E97FB1EF400940E94DC
:1056C000722B57FD07D00E948D2B07FC03D04EF4A0
:1056D0000C94722B50954095309521953F4F4F4F2C
:1056E0005F4F089590958095709561957F4F8F4F8E
:1056F0009F4F08950E94AF2BA59F900DB49F900DD2
:10570000A49F800D911D11240895B7FF0C947A2B4E
:105710000E947A2B821B930B0895A1E21A2EAA1BDA
:10572000BB1BFD010DC0AA1FBB1FEE1FFF1FA21751
:10573000B307E407F50720F0A21BB30BE40BF50B4E
:10574000661F771F881F991F1A9469F760957095D7
:10575000809590959B01AC01BD01CF010895A29F5A
:10576000B001B39FC001A39F700D811D1124911D35
:10577000B29F700D811D1124911D08955058BB27B3
:10578000AA270E94D62B0C94C02D0E94B22D38F06F
:105790000E94B92D20F039F49F3F19F426F40C949F
:1057A000882D0EF4E095E7FB0C94822DE92F0E94E2
:1057B000D12D58F3BA17620773078407950720F0B5
:1057C00079F4A6F50C94F32D0EF4E0950B2EBA2F78
:1057D000A02D0B01B90190010C01CA01A0011124F7
:1057E000FF27591B99F0593F50F4503E68F11A16A3
:1057F000F040A22F232F342F4427585FF3CF469534
:1058000037952795A795F0405395C9F77EF41F1655
:10581000BA0B620B730B840BBAF09150A1F0FF0F1F
:10582000BB1F661F771F881FC2F70EC0BA0F621F0B
:10583000731F841F48F4879577956795B795F795FB
:105840009E3F08F0B0CF9395880F08F09927EE0F90
:105850009795879508950E94B22D60F080E891E0B9
:1058600009F49EEF0E94B92D28F040E851E071F450
:105870005EEF0CC00C94882D0C94F32DE92FE0788A
:105880000E94D12D40F3092E052AB1F326173707C0
:105890004807590738F00E2E07F8E02569F0E02593
:1058A000E0640AC0EF6307F8009407FADB01B9016E
:1058B0009D01DC01CA01AD01EF930E94B42C0E944E
:1058C000C02D0E946E2C5F91552339F02BED3FE0E7
:1058D00049E450FD49EC0C94BF2B0895DF93DD277C
:1058E000B92FBF7740E85FE31616170648075B0736
:1058F00018F4D92F0E94FA2D9F938F937F936F9363
:105900000E946F2EECEAF0E00E948B2D0E94C02DC9
:105910002F913F914F915F910E94152EDD2351F001
:105920009058A2EA2AED3FE049EC5FE3D0785D278A
:105930000E94D62BDF910C94C02D0E94B12C0C94A8
:10594000C02D0E94B92D58F00E94B22D40F029F4CC
:105950005F3F29F00C94822D51110C94F42D0C947E
:10596000882D0E94D12D68F39923B1F3552391F32B
:10597000951B550BBB27AA2762177307840738F0BE
:105980009F5F5F4F220F331F441FAA1FA9F335D01B
:105990000E2E3AF0E0E832D091505040E695001CCF
:1059A000CAF72BD0FE2F29D0660F771F881FBB1F89
:1059B000261737074807AB07B0E809F0BB0B802D67
:1059C000BF01FF2793585F4F3AF09E3F510578F093
:1059D0000C94822D0C94F42D5F3FE4F3983ED4F3A5
:1059E000869577956795B795F7959F5FC9F7880F67
:1059F000911D9695879597F90895E1E0660F771FB9
:105A0000881FBB1F621773078407BA0720F0621B49
:105A1000730B840BBA0BEE1F88F7E09508950E9474
:105A2000162D6894B1110C94F42D08950E94D92D6F
:105A300088F09F5798F0B92F9927B751B0F0E1F04F
:105A4000660F771F881F991F1AF0BA95C9F714C0FF
:105A5000B13091F00E94F32DB1E008950C94F32D34
:105A6000672F782F8827B85F39F0B93FCCF3869538
:105A700077956795B395D9F73EF490958095709595
:105A800061957F4F8F4F9F4F0895E89409C097FB12
:105A90003EF490958095709561957F4F8F4F9F4F05
:105AA0009923A9F0F92F96E9BB279395F695879549
:105AB00077956795B795F111F8CFFAF4BB0F11F40C
:105AC00060FF1BC06F5F7F4F8F4F9F4F16C08823B3
:105AD00011F096E911C0772321F09EE8872F762FE9
